:020000040000FA
:060000004BEF01F01200BD
:0A0006000100140300006000000078
:040010000D000000DF
:0C001400D9CFE6FFE1CFD9FF020EE126B4
:10002000DE6ADD6ADECF10F0DDCF11F0FD0EDBCF32
:1000300012F0FE0EDBCF13F011501318E8AE02D011
:10004000133404D01250105C135011580AE2620E9F
:10005000E66E67EC01F0E552DF2A010E01E3DB2AD0
:10006000E1D7020EE15C02E2E16AE552E16EE5529F
:10007000E7CFD9FF12000C0EE66E040EE66EAD0E51
:10008000E66E14EC01F0E552E552E552050EE66E1F
:1000900067EC01F0E552120087EC01F082EC01F010
:1000A000000901E0FBD772EC01F0F3CF10F0F4CFC0
:1000B00011F0D89011321032D89011321032105005
:1000C00000D0120060C0E9FF61C0EAFFEF6A64C0BF
:1000D000E9FF65C0EAFFEF6868C0E9FF69C0EAFFB1
:1000E000EF6A3BEF00F0D9CFE6FFE1CFD9FF020E78
:1000F000E1260A0E106E10C00CF0FE0EDBCF07F0EA
:1001000059EC01F00350DF6E0A0E106E10C00CF0B7
:10011000FE0EDBCF07F059EC01F0010E07C0DBFF4C
:10012000DB50100DF350DF24106E020EE15C03E291
:1001300000D0E16AE552E16E1050E552E7CFD9FFF9
:100140001200C0DF82B004D08180819281941BD0E4
:10015000B80EE66E0B0EE66E5DDFE552E55281905D
:100160008184880EE66E130EE66E54DFE552E5528A
:1001700081948182E80EE66E030EE66E4BDFE55257
:0A018000E55281928180DED7120063
:06018A00060EF66E000EE9
:10019000F76E000EF86E00010900F550726F09004D
:1001A000F550736F03E1726701D03DD00900F5503F
:1001B0006D6F0900F5506E6F0900F5506F6F090003
:1001C0000900F550E96E0900F550EA6E09000900D2
:1001D0000900F550706F0900F550716F09000900B2
:1001E000F6CF74F0F7CF75F0F8CF76F06DC0F6FF6C
:1001F0006EC0F7FF6FC0F8FF0001705302E171534A
:1002000007E00900F550EE6E7007F8E27107F9D7C4
:1002100074C0F6FF75C0F7FF76C0F8FF00017207E3
:08022000000E735BBFD7120052
:08022800D9CFE6FFDACFE6FFB3
:10023000E1CFD9FFE2CFDAFFC26AC06AFC0EDB4031
:100240007F0B3C0BC26EFB0EDBCFE6FFFC0EDB38F8
:10025000F00B300BE552E710C16EFD0EDB50040DC4
:10026000F350380B116EFD0EDB380F0B070B106EC1
:10027000FD0EDB50800B10101110C06EFC0EDBAEBB
:1002800003D09E9C9D8CF28CC280E552E5CFDAFFB4
:06029000E7CFD9FF1200C8
:0A02960013EE00F023EE00F0F86A0A
:1002A0000F9CC5EC00F089EC01F0A1EC00F0FBD74D
:0202B00012003A
:0E02B200036A080EE76ED890073603360C502C
:0E02C000035C02E3036E072AE72EF7D7120055
:0202CE00FF0E21
:1002D000E350E84E1200000000D000D000D0E82E1D
:0402E000FAD7120037
:0C02E400C450136E126AC3501210F36E67
:0602F00013C0F4FF120030
:0A02F60000EE00F00F0EEE6AEA625F
:04030000FDD7120013
:0A030400C250020B01E0010E1200CE
:02030E00C282A9
:020310001200D9
:020312001200D7
:0C031400930F810F940F820F950F830F41
:010320006379
:00000001FF
